:100000000C9464000C948C000C948C000C948C0068
:100010000C948C000C948C000C948C000C940107B4
:100020000C948C000C948C000C948C000C948C0020
:100030000C948C000C948C000C948C000C948C0010
:100040000C94B7060C948C000C948C000C948C00CF
:100050000C948C000C948C000C948C000C948C00F0
:100060000C948C000C948C000000000024002700ED
:100070002A000000000023002600290000000008DC
:10008000000201000003040700000000000000005F
:10009000010204081020408001020408102001021F
:1000A0000408102000000000250028002B00040494
:1000B0000404040404040202020202020303030310
:1000C00003030200740A370B11241FBECFEFD8E0E0
:1000D000DEBFCDBF24E0A6E9B3E001C01D92AC387D
:1000E000B207E1F713E0A0E0B1E0E4EBFBE102C00E
:1000F00005900D92A639B107D9F710E0C3E6D0E01C
:1001000004C02197FE010E94CC0BC236D107C9F76B
:100110000E945D070C94CD0D0C94000096E0899F21
:10012000D0011124A051BC4F90967C936E935F97A1
:1001300091E091969C939197E0915D04F0915E041B
:1001400090915C04992339F0309751F0811108C0E7
:1001500080910C040994309719F05C968C91FACF39
:100160000895CF92DF92EF92FF920F931F9396E044
:10017000899FF0011124E051FC4F11A2278D30A17D
:100180002130310551F178F02230310509F451C0A8
:100190002330310509F452C01F910F91FF90EF9069
:1001A000DF90CF9008956623B9F361E070E00E947C
:1001B0008E002FB7F8948091EC039091ED03A091FD
:1001C000EE03B091EF032FBF80934804909349044E
:1001D000A0934A04B0934B04DFCF9FB7F894C0902C
:1001E000EC03D090ED03E090EE03F090EF039FBF9F
:1001F000009148041091490420914A0430914B0425
:10020000C01AD10AE20AF30A00915A0410915B0461
:1002100030E020E00C151D052E053F0550F462E08E
:1002200070E01F910F91FF90EF90DF90CF900C94B2
:100230008E006111B1CF63E070E0F3CF70E060E059
:10024000F0CF833081F028F4813099F08230A9F02A
:1002500008958730A9F08830C9F08430B1F48091D6
:1002600080008F7D03C0809180008F778093800015
:10027000089584B58F7784BD089584B58F7DFBCFB5
:100280008091B0008F778093B00008958091B00086
:100290008F7DF9CFCF93DF93282F30E0F901E45819
:1002A000FF4F8491F901E057FF4FD491F901E255D6
:1002B000FF4FC491CC23A1F081110E942101EC2FAA
:1002C000F0E0EE0FFF1FEE58FF4FA591B491EC91B7
:1002D000ED2381E090E009F480E0DF91CF91089573
:1002E00080E090E0FACF1F93CF93DF93282F30E088
:1002F000F901E458FF4F8491F901E057FF4FD49181
:10030000F901E255FF4FC491CC23A9F0162F8111BA
:100310000E942101EC2FF0E0EE0FFF1FEC55FF4F84
:10032000A591B4918FB7F894EC91111108C0D095B4
:10033000DE23DC938FBFDF91CF911F910895DE2BD9
:10034000F8CFCF93DF9390E0FC01E057FF4F24916B
:1003500082559F4FFC0184918823C9F090E0880F5B
:10036000991FFC01E859FF4FA591B491FC01EC5590
:10037000FF4FC591D49161110DC09FB7F8948C9136
:10038000209582238C938881282328839FBFDF9127
:10039000CF910895623051F49FB7F8943C91822F29
:1003A000809583238C93E8812E2BEFCF8FB7F89421
:1003B000EC912E2B2C938FBFEACFCF92DF92EF924E
:1003C000FF920F931F93CF938C0180911A0183307A
:1003D00051F08F3FC1F1CF911F910F91FF90EF909E
:1003E000DF90CF900895E2ECF0E0C491C7FDF3CF29
:1003F00061E083E00E94A101C1113BC0980150E07F
:1004000040E068E478EE81E090E00E94AD0BBA0134
:10041000A901415051096109710985B5887F83603F
:1004200085BD47BD8FEF9FEFDC0180936C049093F7
:100430006D04A0936E04B0936F0480916E0082608F
:1004400080936E00C8CF83E080931A01E2ECF0E065
:10045000C491CF3F09F4BFCFC13009F44EC0A0F121
:10046000C23009F468C0C7FDB6CF61E083E00E94E6
:10047000A101980150E040E0C23009F07EC060E97F
:1004800070ED83E090E00E94AD0BBA01A9014150EC
:100490005109610971098091B100887F836080935F
:1004A000B1004093B3008FEF9FEFDC0180936404B1
:1004B00090936504A0936604B093670480917000E4
:1004C00082608093700087CF14BC15BC84B58260B5
:1004D00084BD85B5816085BDE1EBF0E0E491F0E09D
:1004E000EE0FFF1FEC55FF4F85919491E3E9F0E08B
:1004F000E491E0936304C0E07BCF109280001092FF
:1005000081008091810088608093810080918100CA
:10051000816080938100E1EBF0E0E491F0E0EE0F88
:10052000FF1FEC55FF4F85919491E3E9F0E0E491D2
:10053000E09362045DCF1092B0001092B100809100
:10054000B00082608093B0008091B10081608093A0
:10055000B100E1EBF0E0E491F0E0EE0FFF1FEC55AD
:10056000FF4F859194919093610480936004E3E937
:10057000F0E0E491E0935F043BCF60E072E18AE752
:1005800090E00E94AD0B69017A0181E0C81AD108A0
:10059000E108F108A601C130D9F480918100887F7B
:1005A000816080938100D0928900C09288008FEF93
:1005B0009FEFDC018093680490936904A0936A0420
:1005C000B0936B0480916F00826080936F0003CFC3
:1005D000C23009F466CFC111FECE23CF3FB7F894E5
:1005E0008091E8039091E903A091EA03B091EB03B5
:1005F00026B5A89B05C02F3F19F00196A11DB11D7E
:100600003FBFBA2FA92F982F8827BC01CD01620FB9
:10061000711D811D911D42E0660F771F881F991F74
:100620004A95D1F708958F929F92AF92BF92CF9241
:10063000DF92EF92FF924B015C010E94EE026B0190
:100640007C010E94EE026C197D098E099F09683EAB
:10065000734081059105A8F321E0821A9108A10851
:10066000B10888EEC80E83E0D81EE11CF11C81148D
:100670009104A104B10429F7FF90EF90DF90CF908F
:10068000BF90AF909F908F900895862F642F0C9409
:10069000A101862F642F0C947301862F0C944A01BC
:1006A00090911A0189130BC0E2ECF0E0E4919FEF06
:1006B00090931A01E13049F028F0E23061F060E0F7
:1006C0000C94730110926E00FACF90916F009D7F91
:1006D00090936F00F4CF909170009D7F9093700085
:1006E00091E09093B0009091B100987F94609093C6
:1006F000B1001092B300E3CFAF92BF92CF92DF92DE
:10070000EF92FF920F931F93CF93DF936C017B01C6
:100710008B01040F151FEB015E01AE18BF08C01757
:10072000D10759F06991D601ED91FC910190F081CA
:10073000E02DC6010995892B79F7C501DF91CF918D
:100740001F910F91FF90EF90DF90CF90BF90AF90EF
:100750000895089590E080E008958F929F92AF925F
:10076000BF920F931F93CF93DF93CDB7DEB7A197BF
:100770000FB6F894DEBF0FBECDBF19A2423008F409
:100780004AE08E010F5D1F4F842E912CB12CA12CBD
:10079000A50194010E948B0BE62FB901CA01EA3032
:1007A00044F5E05DD801EE938D01232B242B252BFE
:1007B00079F790E080E0109769F0FD01019000204A
:1007C000E9F73197AF014A1B5B0BBD0180E794E06D
:1007D0000E947C03A1960FB6F894DEBF0FBECDBF7A
:1007E000DF91CF911F910F91BF90AF909F908F900D
:1007F0000895E95CD7CFFC0101900020E9F731971B
:10080000AF01481B590BBC0180E794E00C947C03BA
:10081000CF93DF93EC0160E08E810E94730161E071
:100820008E810E94730160E08E810E9473018BE8CB
:1008300091E00197F1F7DF91CF910895CF92DF9288
:10084000EF92FF920F931F93CF93DF936C017C0184
:1008500087E0E80EF11CD0E0C0E0062F10E0B80100
:100860000C2E02C0759567950A94E2F76170F70146
:1008700081917F010E9473012196C430D10579F7DF
:10088000C601DF91CF911F910F91FF90EF90DF9004
:10089000CF900C940804CF92DF92EF92FF920F93C7
:1008A0001F93CF93DF93EC01F62E642F8C810E946F
:1008B00073018D818F3F19F060E00E9473010F2D4D
:1008C00010E08F8584FF25C06E0187E0C80ED11C23
:1008D000F12CE12CB8010E2C02C0759567950A9495
:1008E000E2F76170F60181916F010E947301FFEFE1
:1008F000EF1AFF0A88E0E816F10461F7CE01DF91F4
:10090000CF911F910F91FF90EF90DF90CF900C94BB
:100910000804B80184E0759567958A95E1F7CE01E2
:100920000E941E046F2DCE01DF91CF911F910F9178
:10093000FF90EF90DF90CF900C941E0440E0682F62
:1009400080E794E00C944B0481E00E949E048BE3CA
:100950009FE10197F1F708951092E5031092E403E7
:1009600083E090E090931901809318010E94A40401
:1009700087E391E00E94FB0368EE73E080E090E083
:100980000E9413030C94A404CF93DF93823029F4C4
:1009900090917F04986090937F04809383041092D9
:1009A000840480E48093850480E18093860480E55C
:1009B0008093870461E0809174040E94A10180917A
:1009C00075048F3F19F061E00E94A10161E0809100
:1009D00076040E94A101C0E7D4E09E012057344074
:1009E00080917F0484FD0BC084E090E0219628175D
:1009F000390744F461E08E810E94A101EECF88E0C6
:100A000090E0F4CF8BE39DE00197F1F760E08091F7
:100A100074040E94730160E0809176040E94730167
:100A2000809175048F3F19F060E00E9473018091FE
:100A30007F0484FD34C063E080E794E00E941E04DC
:100A4000CBE4D6E4CE010197F1F763E080E794E0D0
:100A50000E941E042197F1F763E080E794E00E9472
:100A60001E0483E592E00197F1F762E080E794E0ED
:100A70000E941E0480917F0480620E949E0484E094
:100A8000809380048CE00E949E040E94A40482E073
:100A90008093810486E0DF91CF910C949E04806264
:100AA0000E949E048BE496E40197F1F780917F0405
:100AB00080620E949E0483E592E00197F1F78091A5
:100AC0007F0480620E949E04D5CF909183046917B1
:100AD00010F06FEF690FE62FF0E0E059FB4F9489BB
:100AE000890F80680C949E0441E00E944B0481E0D1
:100AF00090E00895CF92DF92EF92FF926C01990FF0
:100B0000EE08FF08F7FE16C041E06DE280E794E0D2
:100B10000E944B0466277727CB016C197D098E094B
:100B20009F094AE00E94AD030196FF90EF90DF908D
:100B3000CF9008954AE0C701B601FF90EF90DF9093
:100B4000CF900C94AD030F931F93CF93DF93EC01E1
:100B500088819981009759F02A813B8126173707B0
:100B600030F081E0DF91CF911F910F9108958B01BB
:100B70006F5F7F4F0E94F70C009759F0998388832D
:100B80001B830A832C813D81232B59F7FC011082A2
:100B9000E8CF80E0E7CFCF93DF93EC0188819981A4
:100BA000009711F00E946E0C198218821D821C821F
:100BB0001B821A82DF91CF910895EF92FF920F93DB
:100BC0001F93CF93DF93EC017B018A01BA010E944E
:100BD000A30581110BC0CE010E94CB05CE01DF9190
:100BE000CF911F910F91FF90EF9008951D830C837B
:100BF000B701888199810E94C60DF0CFCF93DF9312
:100C0000EC01FB018617970749F06081718161153E
:100C1000710541F0448155810E94DD05CE01DF91CF
:100C2000CF9108950E94CB05F9CFFC01118210826B
:100C30001382128215821482FB0101900020E9F7D1
:100C40003197AF01461B570B0C94DD05FC018081E9
:100C50009181009711F00C946E0C08958F929F92E1
:100C6000AF92BF92CF92DF92EF92FF920F931F93BA
:100C7000CF93DF9300D000D000D0CDB7DEB76C01AA
:100C800010E000E05801F601848195814096081734
:100C9000190708F059C00E94A40460E080E00E9497
:100CA00065054801F0E18F0E911C8016910610F445
:100CB000540148016FE671E0CE0101960E941506CD
:100CC000F601E480F580AE14BF0420F58E149F0475
:100CD00008F47401F60160817181FB01EE0DFF1DC6
:100CE000908010826A0D7B1D6115710541F1FB0139
:100CF00001900020E9F73197AF01461B570BCE0159
:100D000001960E94DD05F60180819181E80EF91EB1
:100D1000F70190824D815E8169817A8180E794E05C
:100D20000E947C03CE0101960E94260664E670E0D4
:100D300080E090E00E9413030F5F1F4FA3CFCE010E
:100D400001960E94CB05DFCF26960FB6F894DEBF42
:100D50000FBECDBFDF91CF911F910F91FF90EF900C
:100D6000DF90CF90BF90AF909F908F9008951F928B
:100D70000F920FB60F9211242F933F938F939F934F
:100D8000AF93BF938091EC039091ED03A091EE039C
:100D9000B091EF033091E70323E0230F2D3758F58F
:100DA0000196A11DB11D2093E7038093EC0390935E
:100DB000ED03A093EE03B093EF038091E8039091CD
:100DC000E903A091EA03B091EB030196A11DB11DC7
:100DD0008093E8039093E903A093EA03B093EB03B5
:100DE000BF91AF919F918F913F912F910F900FBE27
:100DF0000F901F90189526E8230F0296A11DB11D94
:100E0000D2CF1F920F920FB60F9211242F933F93C0
:100E10004F935F936F937F938F939F93AF93BF9302
:100E2000EF93FF938091640490916504A091660410
:100E3000B0916704892B8A2B8B2BD1F190915F04A1
:100E4000E0916004F0916104808189278083809122
:100E5000640490916504A0916604B091670418162B
:100E600019061A061B069CF480916404909165048F
:100E7000A0916604B09167040197A109B10980931C
:100E8000640490936504A0936604B0936704FF9193
:100E9000EF91BF91AF919F918F917F916F915F91F2
:100EA0004F913F912F910F900FBE0F901F9018956B
:100EB00080911A010E945003EACFCF93DF93CDB700
:100EC000DEB72C970FB6F894DEBF0FBECDBF789477
:100ED00084B5826084BD84B5816084BD85B582603F
:100EE00085BD85B5816085BD80916E0081608093F0
:100EF0006E00109281008091810082608093810059
:100F00008091810081608093810080918000816068
:100F1000809380008091B10084608093B1008091C3
:100F2000B00081608093B00080917A0084608093EB
:100F30007A0080917A00826080937A0080917A00B2
:100F4000816080937A0080917A00806880937A0033
:100F50001092C10082E00E94C40487E391E00E94E5
:100F6000FB0368EE73E080E090E00E9413030E94B0
:100F7000A40461E08DE00E94A10161E083E00E9491
:100F8000A10136E0E32E412C512C3201439433244D
:100F900033948091E603811127C08091E4039091FE
:100FA000E503E89EB001E99E700D112460547C4F6A
:100FB0001A8219821C821B821E821D82CE0101961A
:100FC0000E94FE05CE0101960E942E06CE010196DA
:100FD0000E94260660E080E00E94650583E491E0BF
:100FE0000E94FB033092E60330925C048FB7F894C2
:100FF0004091EC035091ED036091EE037091EF038B
:101000008FBF80914C0490914D04A0914E04B091FB
:101010004F04481B590B6A0B7B0B8091580490912D
:101020005904B0E0A0E084179507A607B70708F0B9
:1010300018C110E080915604181760F4E091520432
:10104000F0915304E10FF11D62E080810E94A10143
:101050001F5FF0CFF12C80915704F81608F061C0A3
:10106000CF2CD12CE0915404F0915504EC0DFD1DD2
:1010700061E080810E94A101E0915404F091550447
:10108000EC0DFD1D60E080810E947301D301C2015F
:101090000F2C04C0880F991FAA1FBB1F0A94D2F7F8
:1010A0004C015C01A094B094212C80915604281628
:1010B00008F5022D10E0E0915204F0915304E00F86
:1010C000F11F80810E944A010C5F1F4F000F111F0A
:1010D000F801E051FC4F892B41F4808191818829EE
:1010E0009929918380832394E0CF808191818A2103
:1010F0009B21F7CFE0915404F0915504EC0DFD1DB8
:1011000061E080810E9473018091540490915504A4
:10111000C80ED91E60E0F60180810E94A101F394FF
:101120009ACF00EF13E0F801878D90A1892B31F45D
:10113000148E8FEF9FEF968F858F11A2369694E0D5
:10114000EC32F90789F7F12C80915604F81608F073
:1011500052C0B12CCF2CD12CCC0CDD1CF601E850A8
:10116000FC4F6F0120915704B21608F042C0F601FF
:10117000608171810B2C02C0769567950A94E2F725
:10118000F29E900111242B0D311DE0EFF3E080E081
:10119000458D568D2417350709F419C18F5F369692
:1011A0008A30B1F760FF23C0E0EFF3E090E080E029
:1011B000448D411117C0E0915004F0915104E20FA9
:1011C000F31F4081E89EF001E99EF00D1124E051EB
:1011D000FC4F448F368F258F10A2178E61E00E943E
:1011E000B10005C0019636968A30910509F7B3948F
:1011F000B9CFF394A9CF80E0F80191A19111892F83
:101200000A5F1F4FF4E00C321F07B1F79FB7F89445
:101210004091EC035091ED036091EE037091EF0368
:101220009FBF40934C0450934D0460934E047093C1
:101230004F048823B1F080911104882391F08091AC
:101240000F0490911004019761F480910C048111B6
:101250000BC080E090E0892B09F49BCE0E94000037
:1012600098CE10925C04F5CF833209F07DC01886C9
:101270001F821A8619861C861B866AEB73E0CE01D4
:1012800007960E94FE051092E6030E94A404809136
:10129000E4039091E5032B853C85E89EF001E99EEF
:1012A000F00D1124EA56FC4F8481958128173907E7
:1012B000A1F48F81988560817181009709F489C0BC
:1012C0006115710539F4232B09F491C0FC0180816B
:1012D00090E08AC00E94BD0D87C08DE591E00E941C
:1012E000FB0388EE93E00E94DD0164E670E080E09D
:1012F00090E00E94130383E00E9450038091180144
:1013000090911901019790931901809318010E94FF
:10131000A40488E691E00E94FB038091180190915B
:1013200019010E947A0568EE73E080E090E00E9467
:1013300013038091180190911901892B09F088C03D
:101340000E94A40480E791E00E94FB0380ED97E0F7
:101350000E94DD0164E670E080E090E00E941303EB
:1013600083E00E94500372C089831A820091BE03F9
:101370001091BF030F5F1F4FB8018AEB93E00E94EB
:10138000A305882399F02091BA033091BB03809183
:10139000BE039091BF03BE016F5F7F4F820F931F0B
:1013A0000E94C60D1093BF030093BE0361E086E068
:1013B0000E9465054091BE035091BF036091BA033E
:1013C0007091BB0380E794E00E947C0342CF617080
:1013D00006CF6115710559F0232B49F0FB0180817F
:1013E00090E0919581959109892B09F076CF89E458
:1013F00091E00E94FB0361E08DE00E94730168EEC2
:1014000073E080E090E00E94130360E08DE00E94B2
:10141000730164EF71E080E090E00E94130380911B
:10142000E4039091E50301969093E5038093E40330
:10143000069771F40E94A40482E591E00E94FB03E8
:1014400068EE73E080E090E00E9413030E94AC0419
:101450000E94A4048CE791E00E94FB038091180194
:10146000909119010E947A0568EE73E080E090E0A7
:101470000E9413030E94A4048091E603811127C0F7
:101480008091E4039091E503E89EB001E99E700D20
:10149000112460547C4F1A8219821C821B821E8286
:1014A0001D82CE0101960E94FE05CE0101960E948A
:1014B0002E06CE0101960E94260660E080E00E9482
:1014C000650583E491E00E94FB033092E603CE01C0
:1014D00007960E94260650E040E06FE671E08AEB36
:1014E00093E00E94DD05B5CE109273041092720451
:1014F0008FE291E0909371048093700481E0809377
:1015000074048FEF80937504109276048FE08093BB
:10151000770480E1809378048AE08093790489E0FD
:1015200080937A0410927B0410927C0410927D04C4
:1015300010927E0410927F0481E00E94C4041092F5
:10154000F2031092F6031092F5031092F70385E26E
:1015500091E09093F1038093F003ECE0F4E01082CB
:10156000148213821582369684E0E834F807B9F7BE
:1015700084E091E0909353048093520480E091E0E2
:10158000909355048093540484E080935604809390
:10159000570488E091E090935104809350048AE0CE
:1015A00090E0909359048093580484EF91E09093D5
:1015B0005B0480935A0410925E0410925D041092B2
:1015C0004C0410924D0410924E0410924F0410924D
:1015D0005C0464E871E080EC93E00E9415066EEC18
:1015E00071E086EC93E00E9415066BE172E08CECF2
:1015F00093E00E9415066AE572E082ED93E00E9496
:10160000150664EB72E088ED93E00E9415066EE12A
:1016100073E08EED93E00E94150667E873E086E9BB
:1016200093E00E9415066AE873E08CE993E00E945B
:10163000150667E873E082EA93E00E9415066DE8FC
:1016400073E088EA93E00E94150660E973E08EEA91
:1016500093E00E94150663E973E084EB93E00E9437
:1016600015066FE671E08AEB93E00C941506CF93B4
:10167000DF938AEB93E00E942606CAEBD3E026971D
:10168000CE010E94260683E0C639D807C1F7C4EE12
:10169000D3E02697CE010E94260683E0C03CD807FF
:1016A000C1F7DF91CF9108952F923F924F925F92B1
:1016B0006F927F928F929F92AF92BF92CF92DF9262
:1016C000EF92FF920F931F93CF93DF93CDB7DEB7C7
:1016D000CA1BDB0B0FB6F894DEBF0FBECDBF09945B
:1016E0002A88398848885F846E847D848C849B84B2
:1016F000AA84B984C884DF80EE80FD800C811B81C0
:10170000AA81B981CE0FD11D0FB6F894DEBF0FBEEE
:10171000CDBFED010895A1E21A2EAA1BBB1BFD014E
:101720000DC0AA1FBB1FEE1FFF1FA217B307E407C0
:10173000F50720F0A21BB30BE40BF50B661F771F18
:10174000881F991F1A9469F76095709580959095F8
:101750009B01AC01BD01CF010895052E97FB1EF43E
:1017600000940E94C40B57FD07D00E948B0B07FC0E
:1017700003D04EF40C94C40B5095409530952195B0
:101780003F4F4F4F5F4F08959095809570956195AD
:101790007F4F8F4F9F4F0895EE0FFF1F0590F491DD
:1017A000E02D09940F931F93CF93DF93823091051F
:1017B00010F482E090E0E0918A04F0918B0430E034
:1017C00020E0B0E0A0E0309799F42115310509F44C
:1017D0004AC0281B390B24303105D8F58A819B81FA
:1017E0006115710589F1FB0193838283FE0111C0AC
:1017F000408151810281138148175907E0F0481751
:10180000590799F4109761F012960C93129713965A
:101810001C933296CF01DF91CF911F910F910895C4
:1018200000938A0410938B04F4CF2115310551F0F5
:101830004217530738F0A901DB019A01BD01DF010E
:10184000F801C1CFEF01F9CF90938B0480938A0404
:10185000CDCFFE01E20FF31F819391932250310906
:1018600039832883D7CF2091880430918904232B92
:1018700041F420911D0130911E0130938904209381
:10188000880420911B0130911C012115310541F480
:101890002DB73EB740911F0150912001241B350BFD
:1018A000E0918804F0918904E217F307A0F42E1B5D
:1018B0003F0B2817390778F0AC014E5F5F4F2417B4
:1018C000350748F04E0F5F1F5093890440938804FA
:1018D000819391939FCFF0E0E0E09CCFCF93DF9393
:1018E0000097E9F0FC01329713821282A0918A04DA
:1018F000B0918B04ED0130E020E01097A1F420813D
:101900003181820F931F2091880430918904281718
:10191000390709F061C0F0938904E0938804DF91EE
:10192000CF910895EA01CE17DF07E8F54A815B8180
:101930009E0141155105B1F7E901FB83EA83499105
:101940005991C40FD51FEC17FD0761F48081918177
:101950000296840F951FE901998388838281938180
:101960009B838A83F0E0E0E012968D919C9113971F
:101970000097B9F52D913C911197CD010296820FF8
:10198000931F20918804309189042817390739F66C
:10199000309751F510928B0410928A04B093890409
:1019A000A0938804BCCFD383C28340815181840F2C
:1019B000951FC817D90761F44E5F5F4F88819981E1
:1019C000480F591F518340838A819B81938382836F
:1019D0002115310509F0B0CFF0938B04E0938A0410
:1019E0009ECFFD01DC01C0CF13821282D7CFB0E0C1
:1019F000A0E0EDEFFCE00C94560B8C01009751F445
:101A0000CB010E94D20B8C01C801CDB7DEB7E0E15B
:101A10000C94720BFC01E60FF71F9C012250310958
:101A2000E217F30708F49DC0D901CD91DC9111971D
:101A3000C617D70798F0C530D10530F3CE0104970B
:101A40008617970708F3C61BD70B2297C193D1932C
:101A50006D937C93CF010E946E0CD6CF5B01AC1AC4
:101A6000BD0A4C018C0E9D1EA0918A04B0918B047E
:101A7000512C412CF12CE12C109731F580918804E8
:101A8000909189048815990509F05CC0461657069F
:101A900008F058C080911B0190911C01009741F4FF
:101AA0008DB79EB740911F0150912001841B950B6B
:101AB000E817F90708F055C0F0938904E09388040B
:101AC000F90171836083A0CF8D919C91119712963B
:101AD0006C90129713967C901397A815B90559F539
:101AE0006C0142E0C40ED11CCA14DB0420F1AC012D
:101AF0004A195B09DA011296159780F062827382A7
:101B000051834083D9016D937C93E114F10471F00A
:101B1000D7011396FC93EE93129776CF22968C0FF3
:101B20009D1FF90191838083F301EFCFF0938B0424
:101B3000E0938A0469CF4816590608F42C017D0108
:101B4000D3019ACFCB010E94D20B7C01009749F0C0
:101B5000AE01B8010E94B40DC8010E946E0C87014D
:101B600053CF10E000E050CFFB01DC0102C0019038
:101B70000D9241505040D8F70895FB01DC018D9142
:101B8000019080190110D9F3990B0895FB01DC0134
:101B900001900D920020E1F7089510E0C3E6D0E037
:101BA00004C0FE010E94CC0B2196C436D107C9F7B0
:041BB000F894FFCFD7
:101BB400060504020C0B0807373839413435364220
:101BC40031323343453023440300FF00008C04804A
:101BD4000000000000450349034D030000000074A9
:101BE400057C03AA03A90341646976696E616E7A70
:101BF4006173005265733A2000436F7272656374B7
:101C04006F00C2A147616E617374652100496E6300
:101C14006F72726563746F0076696461643A200060
:101C2400C2A1506572646973746521007669646148
:101C3400733A200053692073756D6173206D6920B8
:101C4400646F626C652079206C65207265737461C1
:101C540073206D69206D697461642C206F627465F2
:101C64006E647261732031382E20C2BF5175C3A9CE
:101C7400206EC3BA6D65726F20736F793F00536F26
:101C84007920656C20646F626C6520646520756ED4
:101C9400206EC3BA6D65726F2C206C652073756DF0
:101CA4006F2031352079206F6274656E676F203341
:101CB400352E20C2BF4375C3A16C206573206573A4
:101CC40065206EC3BA6D65726F3F00536F792075DE
:101CD4006E206EC3BA6D65726F207072696D6F206D
:101CE4006D656E6F72207175652033302079206DBB
:101CF40061796F72207175652032302E20C2BF4326
:101D040075C3A16C20736F793F00536F7920656CA4
:101D140020646F626C6520646520756E206EC3BAA2
:101D24006D65726F2E205369206C652073756D612B
:101D3400732032352C206F627469656E6573206D73
:101D44006920637561647261646F2E20C2BF43753C
:101D5400C3A16C20657320657365206EC3BA6D657D
:101D6400726F3F00536F79206D61796F72207175C6
:101D740065203230207065726F206D656E6F722041
:101D84007175652033302E2053692073756D61732E
:101D9400206D6920637561647261646F2079206CC1
:101DA400652072657374617320352C206F627469C9
:101DB400656E6573203334302E20C2BF5175C3A9BC
:101DC400206EC3BA6D65726F20736F793F005369DB
:101DD40020746F6D617320756E206EC3BA6D657269
:101DE4006F2C206C652073756D61732031322C204B
:101DF4006C65206469766964657320706F72203342
:101E04002079206C652072657374617320352C20F1
:101E14006F627469656E657320656C206D69736D9E
:101E24006F206EC3BA6D65726F2E20C2BF4375C337
:101E3400A16C2065733F0031320031300032300034
:061E4400313500333000CF
:00000001FF
